:100000000C942A000C9483010C943C000C943C004A
:100010000C943C000C943C000C943C000C943C0070
:100020000C943C000C943C000C943C000C94A601F5
:100030000C943C000C943C000C943C000C943C0050
:100040000C943C000C943C000C943C000C943C0040
:100050000C943C0011241FBECFE5D8E0DEBFCDBF1D
:1000600020E0A0E6B0E001C01D92A436B207E1F79F
:100070000E94D6010C94D4020C94000060E080E051
:100080000E94CA0161E080E00E94CA0162E080E053
:100090000E94CA0160E081E00E94CA0161E081E043
:1000A0000E94CA0162E081E00E94CA0162E083E02E
:1000B0000E94C6010E94B7020E94C2020895809168
:1000C0006200813009F493C020F0823009F4E3C06B
:1000D000F6CF809163008531D8F41092600060E023
:1000E00081E00E94CE0162E080E00E94CE0160E0EB
:1000F00080E00E94D20161E080E00E94D20161E0D4
:1001000081E00E94D20162E081E00E94D201D7CF5B
:100110009BEE980F943120F5109260008091610061
:10012000882329F061E080E00E94CE0104C061E0F4
:1001300080E00E94D20160E081E00E94CE0160E098
:1001400080E00E94D20162E080E00E94D20161E082
:1001500081E00E94D20162E081E00E94D201AFCF33
:1001600097ED980F9431E0F481E08093600060E0B7
:1001700080E00E94CE0162E081E00E94CE0161E059
:1001800080E00E94D20162E080E00E94D20161E042
:1001900081E00E94D20160E081E00E94D2018FCF15
:1001A0008D3308F48CCF1092600080916100882319
:1001B00029F061E080E00E94CE0104C061E080E0AF
:1001C0000E94D20162E081E00E94CE0160E080E006
:1001D0000E94D20162E080E00E94D20161E081E0F1
:1001E0000E94D20160E081E00E94D20168CF80913C
:1001F00063008531C8F462E081E00E94CE0160E0D6
:1002000080E00E94CE0160E081E00E94D20161E0C6
:1002100081E00E94D20161E080E00E94D20162E0B0
:1002200080E00E94D2014BCF9BEE980F943158F59D
:1002300080916100882329F061E080E00E94CE0176
:1002400004C061E080E00E94D201809161008823B7
:1002500029F061E081E00E94CE0104C061E081E00C
:100260000E94D20162E081E00E94CE0160E080E065
:100270000E94D20162E080E00E94D20160E081E051
:100280000E94D2011CCF893208F419CF109263006A
:100290001092620014CF80916300853158F58091EF
:1002A0006100882329F061E080E00E94CE0104C053
:1002B00061E080E00E94D20180916100882329F0F2
:1002C00061E081E00E94CE0104C061E081E00E9413
:1002D000D20160E081E00E94CE0162E081E00E94F4
:1002E000D20160E080E00E94D20162E080E00E94E2
:1002F000D201E5CE853108F4E2CE1092630081E0B0
:1003000080936200DCCE1F920F920FB60F921124E1
:100310008F939F938091620081110AC09091600039
:10032000992331F081E0809362001092630007C04E
:10033000811105C082E080936200109263009F915A
:100340008F910F900FBE0F901F9018951F920F92D4
:100350000FB60F9211242F938F939F938091630078
:100360008F5F8093630091E020916100211190E004
:1003700090936100813510F0109263009F918F91EE
:100380002F910F900FBE0F901F90189540E00E9484
:10039000DD01089541E00E94DD01089541E00E94E1
:1003A0004A02089540E00E944A0208950E943E00D9
:1003B0000E945F0080E090E00895813001F130F00C
:1003C0008230B1F1833009F44CC00895442359F0D0
:1003D0002AB381E090E002C0880F991F6A95E2F786
:1003E000822B8ABB08952AB381E090E002C0880F77
:1003F000991F6A95E2F7809582238ABB089544236A
:1004000059F027B381E090E002C0880F991F6A95E8
:10041000E2F7822B87BB089527B381E090E002C00A
:10042000880F991F6A95E2F78095822387BB08950C
:10043000442359F024B381E090E002C0880F991F53
:100440006A95E2F7822B84BB089524B381E090E0A3
:1004500002C0880F991F6A95E2F78095822384BBBA
:100460000895442359F021B381E090E002C0880F41
:10047000991F6A95E2F7822B81BB089521B381E031
:1004800090E002C0880F991F6A95E2F78095822359
:1004900081BB0895813001F130F08230B1F18330B9
:1004A00009F44CC00895442359F02BB381E090E047
:1004B00002C0880F991F6A95E2F7822B8BBB0895C3
:1004C0002BB381E090E002C0880F991F6A95E2F794
:1004D000809582238BBB0895442359F028B381E093
:1004E00090E002C0880F991F6A95E2F7822B88BBC3
:1004F000089528B381E090E002C0880F991F6A95A3
:10050000E2F78095822388BB0895442359F025B3F0
:1005100081E090E002C0880F991F6A95E2F7822B74
:1005200085BB089525B381E090E002C0880F991F34
:100530006A95E2F78095822385BB0895442359F09C
:1005400022B381E090E002C0880F991F6A95E2F71C
:10055000822B82BB089522B381E090E002C0880F15
:10056000991F6A95E2F78095822382BB089578945B
:1005700085B7816085BF85B7826085BF8BB7806492
:100580008BBF089583B7877F83BF83B78F7B83BF7C
:1005900083B7856083BF789489B7816089BF88B746
:0C05A000816088BF12BE0895F894FFCF60
:00000001FF
